{
  "contractName": "FirstContract",
  "abi": [
    {
      "inputs": [],
      "name": "isContract",
      "outputs": [
        {
          "internalType": "bool",
          "name": "",
          "type": "bool"
        }
      ],
      "stateMutability": "view",
      "type": "function",
      "constant": true
    }
  ],
  "bytecode": "0x608060405234801561001057600080fd5b5061018f806100206000396000f3fe608060405234801561001057600080fd5b506004361061002b5760003560e01c8063f7ec2f3514610030575b600080fd5b61003861004e565b60405161004591906100d8565b60405180910390f35b6000806000339050803b91506000821461009d576040517f08c379a0000000000000000000000000000000000000000000000000000000008152600401610094906100f3565b60405180910390fd5b60019250505090565b6100af81610124565b82525050565b60006100c2601b83610113565b91506100cd82610130565b602082019050919050565b60006020820190506100ed60008301846100a6565b92915050565b6000602082019050818103600083015261010c816100b5565b9050919050565b600082825260208201905092915050565b60008115159050919050565b7f6f6e6c7920616c6c6f7720636f6e74726163742061646472657373000000000060008201525056fea2646970667358221220ac55ea7a854240df6697489a4d1640bbb921a556304281dfa4ed2c4e2459c83a64736f6c63430008010033",
  "immutableReferences": {},
  "source": "// SPDX-License-Identifier: MIT\npragma solidity >=0.8.0;\n\ncontract FirstContract {\n\n  function isContract() public view returns (bool) {\n    uint size;\n    address addr = msg.sender;\n    assembly { size := extcodesize(addr) }\n    require(size == 0, \"only allow contract address\");\n    return true;\n  } \n  \n}\n",
  "sourcePath": "/Users/fengshanshan/Project/preliminary-test/question6/contracts/First.sol",
  "compiler": {
    "name": "solc",
    "version": "0.8.1+commit.df193b15.Emscripten.clang"
  },
  "schemaVersion": "3.4.3",
  "updatedAt": "2022-01-04T13:34:52.278Z",
  "networkType": "ethereum",
  "devdoc": {
    "kind": "dev",
    "methods": {},
    "version": 1
  },
  "userdoc": {
    "kind": "user",
    "methods": {},
    "version": 1
  }
}