{
  "contractName": "SecondContract",
  "abi": [
    {
      "inputs": [
        {
          "internalType": "contract FirstContract",
          "name": "_ft",
          "type": "address"
        }
      ],
      "stateMutability": "nonpayable",
      "type": "constructor"
    },
    {
      "inputs": [],
      "name": "ft",
      "outputs": [
        {
          "internalType": "contract FirstContract",
          "name": "",
          "type": "address"
        }
      ],
      "stateMutability": "view",
      "type": "function",
      "constant": true
    },
    {
      "inputs": [],
      "name": "CheckIsContract",
      "outputs": [
        {
          "internalType": "bool",
          "name": "",
          "type": "bool"
        }
      ],
      "stateMutability": "view",
      "type": "function",
      "constant": true
    }
  ],
  "bytecode": "0x608060405234801561001057600080fd5b506040516103903803806103908339818101604052810190610032919061008d565b806000806101000a81548173ffffffffffffffffffffffffffffffffffffffff021916908373ffffffffffffffffffffffffffffffffffffffff16021790555050610111565b600081519050610087816100fa565b92915050565b60006020828403121561009f57600080fd5b60006100ad84828501610078565b91505092915050565b60006100c1826100da565b9050919050565b60006100d3826100b6565b9050919050565b600073ffffffffffffffffffffffffffffffffffffffff82169050919050565b610103816100c8565b811461010e57600080fd5b50565b610270806101206000396000f3fe608060405234801561001057600080fd5b50600436106100365760003560e01c8063bb1631cf1461003b578063f1e77d4a14610059575b600080fd5b610043610077565b60405161005091906101b8565b60405180910390f35b61006161009b565b60405161006e919061019d565b60405180910390f35b60008054906101000a900473ffffffffffffffffffffffffffffffffffffffff1681565b60008060009054906101000a900473ffffffffffffffffffffffffffffffffffffffff1673ffffffffffffffffffffffffffffffffffffffff1663f7ec2f356040518163ffffffff1660e01b815260040160206040518083038186803b15801561010457600080fd5b505afa158015610118573d6000803e3d6000fd5b505050506040513d601f19601f8201168201806040525081019061013c9190610156565b905090565b60008151905061015081610223565b92915050565b60006020828403121561016857600080fd5b600061017684828501610141565b91505092915050565b610188816101d3565b82525050565b610197816101ff565b82525050565b60006020820190506101b2600083018461017f565b92915050565b60006020820190506101cd600083018461018e565b92915050565b60008115159050919050565b600073ffffffffffffffffffffffffffffffffffffffff82169050919050565b600061020a82610211565b9050919050565b600061021c826101df565b9050919050565b61022c816101d3565b811461023757600080fd5b5056fea2646970667358221220f6326f744e03c4a998c8ffe28483da28ae01f15fd35d08981f70cf1c55a77a5764736f6c63430008010033",
  "immutableReferences": {},
  "source": "// SPDX-License-Identifier: MIT\npragma solidity >=0.8.0;\nimport \"./First.sol\";\n\ncontract SecondContract {\n    FirstContract public ft;\n\n    constructor(FirstContract _ft)  {\n        ft = _ft;\n    }\n    \n    function CheckIsContract() public view returns (bool) {\n        return ft.isContract();\n    }\n}\n",
  "sourcePath": "/Users/fengshanshan/Project/preliminary-test/question6/contracts/Second.sol",
  "compiler": {
    "name": "solc",
    "version": "0.8.1+commit.df193b15.Emscripten.clang"
  },
  "schemaVersion": "3.4.3",
  "updatedAt": "2022-01-04T13:34:52.286Z",
  "networkType": "ethereum",
  "devdoc": {
    "kind": "dev",
    "methods": {},
    "version": 1
  },
  "userdoc": {
    "kind": "user",
    "methods": {},
    "version": 1
  }
}