{
  "contractName": "SecondContract",
  "abi": [
    {
      "inputs": [
        {
          "internalType": "address",
          "name": "_addr",
          "type": "address"
        }
      ],
      "stateMutability": "nonpayable",
      "type": "constructor"
    },
    {
      "inputs": [],
      "name": "testaddress",
      "outputs": [
        {
          "internalType": "address",
          "name": "",
          "type": "address"
        }
      ],
      "stateMutability": "view",
      "type": "function",
      "constant": true
    },
    {
      "inputs": [],
      "name": "CheckPass",
      "outputs": [
        {
          "internalType": "bool",
          "name": "",
          "type": "bool"
        }
      ],
      "stateMutability": "nonpayable",
      "type": "function"
    }
  ],
  "bytecode": "0x608060405234801561001057600080fd5b506040516104ac3803806104ac8339818101604052810190610032919061008d565b806000806101000a81548173ffffffffffffffffffffffffffffffffffffffff021916908373ffffffffffffffffffffffffffffffffffffffff160217905550506100ff565b600081519050610087816100e8565b92915050565b60006020828403121561009f57600080fd5b60006100ad84828501610078565b91505092915050565b60006100c1826100c8565b9050919050565b600073ffffffffffffffffffffffffffffffffffffffff82169050919050565b6100f1816100b6565b81146100fc57600080fd5b50565b61039e8061010e6000396000f3fe608060405234801561001057600080fd5b50600436106100365760003560e01c80636db351451461003b57806378d8d41014610059575b600080fd5b610043610077565b604051610050919061023a565b60405180910390f35b61006161009b565b60405161006e9190610255565b60405180910390f35b60008054906101000a900473ffffffffffffffffffffffffffffffffffffffff1681565b60008060008060009054906101000a900473ffffffffffffffffffffffffffffffffffffffff1673ffffffffffffffffffffffffffffffffffffffff166040516020016100e790610270565b6040516020818303038152906040526040516101039190610223565b600060405180830381855af49150503d806000811461013e576040519150601f19603f3d011682016040523d82523d6000602084013e610143565b606091505b50915091508161015257600080fd5b6000818060200190518101906101689190610188565b905080935050505090565b60008151905061018281610351565b92915050565b60006020828403121561019a57600080fd5b60006101a884828501610173565b91505092915050565b6101ba816102b7565b82525050565b6101c9816102c9565b82525050565b60006101da82610290565b6101e4818561029b565b93506101f48185602086016102f5565b80840191505092915050565b600061020d600c836102a6565b915061021882610328565b602082019050919050565b600061022f82846101cf565b915081905092915050565b600060208201905061024f60008301846101b1565b92915050565b600060208201905061026a60008301846101c0565b92915050565b6000602082019050818103600083015261028981610200565b9050919050565b600081519050919050565b600081905092915050565b600082825260208201905092915050565b60006102c2826102d5565b9050919050565b60008115159050919050565b600073ffffffffffffffffffffffffffffffffffffffff82169050919050565b60005b838110156103135780820151818401526020810190506102f8565b83811115610322576000848401525b50505050565b7f6973436f6e747261637428290000000000000000000000000000000000000000600082015250565b61035a816102c9565b811461036557600080fd5b5056fea264697066735822122071314f7b183a96ddadc83496ad373b728ab50a1222a4a255fe441eb3c50631c864736f6c63430008010033",
  "immutableReferences": {},
  "source": "// SPDX-License-Identifier: MIT\npragma solidity >=0.8.0;\nimport \"./First.sol\";\n\ncontract SecondContract {\n  address public testaddress;\n\n  constructor(address _addr)  {\n        testaddress = _addr;\n    }\n\n  function CheckPass() public returns (bool)  {\n     (bool success, bytes memory data) = testaddress.delegatecall(abi.encode(\"isContract()\"));\n     require(success);\n     bool ispass = abi.decode(data, (bool));\n     return ispass;\n  } \n}\n",
  "sourcePath": "/Users/fengshanshan/Project/pundix/question6/contracts/second.sol",
  "compiler": {
    "name": "solc",
    "version": "0.8.1+commit.df193b15.Emscripten.clang"
  },
  "schemaVersion": "3.4.3",
  "updatedAt": "2021-12-20T15:27:37.787Z",
  "networkType": "ethereum",
  "devdoc": {
    "kind": "dev",
    "methods": {},
    "version": 1
  },
  "userdoc": {
    "kind": "user",
    "methods": {},
    "version": 1
  }
}