{
  "contractName": "ThirdContract",
  "abi": [
    {
      "inputs": [
        {
          "internalType": "address",
          "name": "_addr",
          "type": "address"
        }
      ],
      "stateMutability": "nonpayable",
      "type": "constructor"
    },
    {
      "inputs": [],
      "name": "testaddress",
      "outputs": [
        {
          "internalType": "address",
          "name": "",
          "type": "address"
        }
      ],
      "stateMutability": "view",
      "type": "function",
      "constant": true
    },
    {
      "inputs": [],
      "name": "CheckPass",
      "outputs": [
        {
          "internalType": "bool",
          "name": "",
          "type": "bool"
        }
      ],
      "stateMutability": "nonpayable",
      "type": "function"
    }
  ],
  "bytecode": "0x608060405234801561001057600080fd5b506040516105623803806105628339818101604052810190610032919061008d565b806000806101000a81548173ffffffffffffffffffffffffffffffffffffffff021916908373ffffffffffffffffffffffffffffffffffffffff160217905550506100ff565b600081519050610087816100e8565b92915050565b60006020828403121561009f57600080fd5b60006100ad84828501610078565b91505092915050565b60006100c1826100c8565b9050919050565b600073ffffffffffffffffffffffffffffffffffffffff82169050919050565b6100f1816100b6565b81146100fc57600080fd5b50565b6104548061010e6000396000f3fe608060405234801561001057600080fd5b50600436106100365760003560e01c80636db351451461003b57806378d8d41014610059575b600080fd5b610043610077565b60405161005091906102f0565b60405180910390f35b61006161009b565b60405161006e919061030b565b60405180910390f35b60008054906101000a900473ffffffffffffffffffffffffffffffffffffffff1681565b60008060008060009054906101000a900473ffffffffffffffffffffffffffffffffffffffff1673ffffffffffffffffffffffffffffffffffffffff166040516024016040516020818303038152906040527ff7ec2f35000000000000000000000000000000000000000000000000000000007bffffffffffffffffffffffffffffffffffffffffffffffffffffffff19166020820180517bffffffffffffffffffffffffffffffffffffffffffffffffffffffff838183161783525050505060405161016891906102d9565b600060405180830381855af49150503d80600081146101a3576040519150601f19603f3d011682016040523d82523d6000602084013e6101a8565b606091505b5091509150600015158215151415610208576000815111156101cd5780518082602001fd5b6040517f08c379a00000000000000000000000000000000000000000000000000000000081526004016101ff90610326565b60405180910390fd5b60008180602001905181019061021e919061023e565b905080935050505090565b60008151905061023881610407565b92915050565b60006020828403121561025057600080fd5b600061025e84828501610229565b91505092915050565b6102708161036d565b82525050565b61027f8161037f565b82525050565b600061029082610346565b61029a8185610351565b93506102aa8185602086016103ab565b80840191505092915050565b60006102c360168361035c565b91506102ce826103de565b602082019050919050565b60006102e58284610285565b915081905092915050565b60006020820190506103056000830184610267565b92915050565b60006020820190506103206000830184610276565b92915050565b6000602082019050818103600083015261033f816102b6565b9050919050565b600081519050919050565b600081905092915050565b600082825260208201905092915050565b60006103788261038b565b9050919050565b60008115159050919050565b600073ffffffffffffffffffffffffffffffffffffffff82169050919050565b60005b838110156103c95780820151818401526020810190506103ae565b838111156103d8576000848401525b50505050565b7f46756e6374696f6e2063616c6c20726576657274656400000000000000000000600082015250565b6104108161037f565b811461041b57600080fd5b5056fea26469706673582212209e0ab51a6205cb9626b3312f31d8c607df46c99023cd5ed98240924c22a40ede64736f6c63430008010033",
  "immutableReferences": {},
  "source": "// SPDX-License-Identifier: MIT\npragma solidity >=0.8.0;\nimport \"./First.sol\";\n\ncontract ThirdContract {\n  address public testaddress;\n\n  constructor(address _addr)  {\n        testaddress = _addr;\n  }\n\n  function CheckPass() public returns (bool)  {\n    (bool success, bytes memory data) = testaddress.delegatecall(abi.encodeWithSignature(\"isContract()\"));\n    if (success == false) {\n          // if there is a return reason string\n          if (data.length > 0) {\n              // bubble up any reason for revert\n              assembly {\n                  let returndata_size := mload(data)\n                  revert(add(32, data), returndata_size)\n              }  \n          } else {\n              revert(\"Function call reverted\");\n          }\n      }\n    bool ispass = abi.decode(data, (bool));\n    return ispass;\n  } \n\n}",
  "sourcePath": "/Users/fengshanshan/Project/preliminary-test/question6/contracts/Third.sol",
  "compiler": {
    "name": "solc",
    "version": "0.8.1+commit.df193b15.Emscripten.clang"
  },
  "schemaVersion": "3.4.3",
  "updatedAt": "2022-01-04T13:34:52.294Z",
  "networkType": "ethereum",
  "devdoc": {
    "kind": "dev",
    "methods": {},
    "version": 1
  },
  "userdoc": {
    "kind": "user",
    "methods": {},
    "version": 1
  }
}